{
  "transactions": [
    {
      "hash": "0x5c31bb91f8d711c330756a31b133c25a9393575843c4653a6bf8cd7246d7857f",
      "transactionType": "CALL",
      "contractName": null,
      "contractAddress": "0xbfb2823314ae823536187257f089c6200bbd8e45",
      "function": "mint(address)",
      "arguments": [
        "0x7571707A5dF03406772508A1858DA3f94AE27C12"
      ],
      "transaction": {
        "from": "0x7571707a5df03406772508a1858da3f94ae27c12",
        "to": "0xbfb2823314ae823536187257f089c6200bbd8e45",
        "gas": "0x1fa3a",
        "value": "0x0",
        "input": "0x6a6278420000000000000000000000007571707a5df03406772508a1858da3f94ae27c12",
        "nonce": "0xb",
        "chainId": "0x106a"
      },
      "additionalContracts": [],
      "isFixedGasLimit": false
    }
  ],
  "receipts": [
    {
      "status": "0x1",
      "cumulativeGasUsed": "0x222ce",
      "logs": [
        {
          "address": "0xbfb2823314ae823536187257f089c6200bbd8e45",
          "topics": [
            "0xddf252ad1be2c89b69c2b068fc378daa952ba7f163c4a11628f55a4df523b3ef",
            "0x0000000000000000000000000000000000000000000000000000000000000000",
            "0x0000000000000000000000007571707a5df03406772508a1858da3f94ae27c12",
            "0x0000000000000000000000000000000000000000000000000000000000000001"
          ],
          "data": "0x",
          "blockHash": "0xf4eefbe9c479de9b6250c55eadbd0283d1c2219de6a83e83dbc3dda93870be50",
          "blockNumber": "0x1ff72ad",
          "blockTimestamp": "0x69a3e83a",
          "transactionHash": "0x5c31bb91f8d711c330756a31b133c25a9393575843c4653a6bf8cd7246d7857f",
          "transactionIndex": "0x1",
          "logIndex": "0x0",
          "removed": false
        }
      ],
      "logsBloom": "0x00000000000000000000000000000000000000000000000000000000000000000000000000000000000000000000000000000000000000000000000000040000000000000000000000000008000000000000000000040000004000000000000000000000020000000000000004000800000000000000000000000010000000000000000000000000000000000000000000000000000000000000000000000000000000000000000100000000000000000000000000000000000000001000000000000002000000000200000000000000000000000000000000000000000060000000000000000000000020000000000000000000000000000000000000000000",
      "type": "0x2",
      "transactionHash": "0x5c31bb91f8d711c330756a31b133c25a9393575843c4653a6bf8cd7246d7857f",
      "transactionIndex": "0x1",
      "blockHash": "0xf4eefbe9c479de9b6250c55eadbd0283d1c2219de6a83e83dbc3dda93870be50",
      "blockNumber": "0x1ff72ad",
      "gasUsed": "0x16e80",
      "effectiveGasPrice": "0xfe",
      "blobGasUsed": "0x9c40",
      "from": "0x7571707a5df03406772508a1858da3f94ae27c12",
      "to": "0xbfb2823314ae823536187257f089c6200bbd8e45",
      "contractAddress": null,
      "daFootprintGasScalar": "0x190",
      "l1BaseFeeScalar": "0x2af8",
      "l1BlobBaseFee": "0x2",
      "l1BlobBaseFeeScalar": "0x109618",
      "l1Fee": "0x31e",
      "l1GasPrice": "0x21",
      "l1GasUsed": "0x640"
    }
  ],
  "libraries": [],
  "pending": [],
  "returns": {},
  "timestamp": 1772349499027,
  "chain": 4202,
  "commit": null
}