{
  "transactions": [
    {
      "hash": "0x8988a662d0642565ac8c88a60fa3b81bad9e991cfb1e97d99dd48634386c6492",
      "transactionType": "CALL",
      "contractName": null,
      "contractAddress": "0x65c4a65734be81835ac2bf8a44dc380a5a8a2b3a",
      "function": "mint(address)",
      "arguments": [
        "0x7571707A5dF03406772508A1858DA3f94AE27C12"
      ],
      "transaction": {
        "from": "0x7571707a5df03406772508a1858da3f94ae27c12",
        "to": "0x65c4a65734be81835ac2bf8a44dc380a5a8a2b3a",
        "gas": "0x1fa3a",
        "value": "0x0",
        "input": "0x6a6278420000000000000000000000007571707a5df03406772508a1858da3f94ae27c12",
        "nonce": "0xd",
        "chainId": "0x106a"
      },
      "additionalContracts": [],
      "isFixedGasLimit": false
    }
  ],
  "receipts": [
    {
      "status": "0x1",
      "cumulativeGasUsed": "0x222ce",
      "logs": [
        {
          "address": "0x65c4a65734be81835ac2bf8a44dc380a5a8a2b3a",
          "topics": [
            "0xddf252ad1be2c89b69c2b068fc378daa952ba7f163c4a11628f55a4df523b3ef",
            "0x0000000000000000000000000000000000000000000000000000000000000000",
            "0x0000000000000000000000007571707a5df03406772508a1858da3f94ae27c12",
            "0x0000000000000000000000000000000000000000000000000000000000000001"
          ],
          "data": "0x",
          "blockHash": "0x428d4e0a49eb79a26399179384d8ba681ffc4061bbedd4a473073ecaac04e592",
          "blockNumber": "0x1ff7400",
          "blockTimestamp": "0x69a3eae0",
          "transactionHash": "0x8988a662d0642565ac8c88a60fa3b81bad9e991cfb1e97d99dd48634386c6492",
          "transactionIndex": "0x1",
          "logIndex": "0x0",
          "removed": false
        }
      ],
      "logsBloom": "0x00000000000000000000000000000000000000000000000000000000000000000000000000000000000000000000000000000000000000000000000000040000000000000000000000000008000000000000000000040000004000000000000000000000120000000000000000000800000000000000000000000010000000000000000000000000000000000000000000000000000000000000000000000000000000000000000100000000000000000000000000000000000000001000000000000002000000000000000000000000000000080000000000000000000060000000000000000000000000000000000000000000000000000000004000000000",
      "type": "0x2",
      "transactionHash": "0x8988a662d0642565ac8c88a60fa3b81bad9e991cfb1e97d99dd48634386c6492",
      "transactionIndex": "0x1",
      "blockHash": "0x428d4e0a49eb79a26399179384d8ba681ffc4061bbedd4a473073ecaac04e592",
      "blockNumber": "0x1ff7400",
      "gasUsed": "0x16e80",
      "effectiveGasPrice": "0xfe",
      "blobGasUsed": "0x9c40",
      "from": "0x7571707a5df03406772508a1858da3f94ae27c12",
      "to": "0x65c4a65734be81835ac2bf8a44dc380a5a8a2b3a",
      "contractAddress": null,
      "daFootprintGasScalar": "0x190",
      "l1BaseFeeScalar": "0x2af8",
      "l1BlobBaseFee": "0x1",
      "l1BlobBaseFeeScalar": "0x109618",
      "l1Fee": "0x28e",
      "l1GasPrice": "0x1f",
      "l1GasUsed": "0x640"
    }
  ],
  "libraries": [],
  "pending": [],
  "returns": {},
  "timestamp": 1772350177367,
  "chain": 4202,
  "commit": null
}