{
  "transactions": [
    {
      "hash": "0xbb7f8818c16f543547d2a2f02d2702f5cef555f4cdb53122c45a2634a82b6b99",
      "transactionType": "CALL",
      "contractName": null,
      "contractAddress": "0x6ba944d6298caf991db578186012e518e7a42f18",
      "function": "mint(address)",
      "arguments": [
        "0x7571707A5dF03406772508A1858DA3f94AE27C12"
      ],
      "transaction": {
        "from": "0x7571707a5df03406772508a1858da3f94ae27c12",
        "to": "0x6ba944d6298caf991db578186012e518e7a42f18",
        "gas": "0x1fa3a",
        "value": "0x0",
        "input": "0x6a6278420000000000000000000000007571707a5df03406772508a1858da3f94ae27c12",
        "nonce": "0xf",
        "chainId": "0x106a"
      },
      "additionalContracts": [],
      "isFixedGasLimit": false
    }
  ],
  "receipts": [
    {
      "status": "0x1",
      "cumulativeGasUsed": "0x222ce",
      "logs": [
        {
          "address": "0x6ba944d6298caf991db578186012e518e7a42f18",
          "topics": [
            "0xddf252ad1be2c89b69c2b068fc378daa952ba7f163c4a11628f55a4df523b3ef",
            "0x0000000000000000000000000000000000000000000000000000000000000000",
            "0x0000000000000000000000007571707a5df03406772508a1858da3f94ae27c12",
            "0x0000000000000000000000000000000000000000000000000000000000000001"
          ],
          "data": "0x",
          "blockHash": "0x04bd373cbdabfffde26ab244ba1879938b88831677fbe90c2f630cc7b155edbb",
          "blockNumber": "0x1ff75d2",
          "blockTimestamp": "0x69a3ee84",
          "transactionHash": "0xbb7f8818c16f543547d2a2f02d2702f5cef555f4cdb53122c45a2634a82b6b99",
          "transactionIndex": "0x1",
          "logIndex": "0x0",
          "removed": false
        }
      ],
      "logsBloom": "0x00000000000000000000000000000000000000000000008000000000000000000000000010000000000000000000000000000000000000000000000000040000000000000000000000000008000000000000000000040000004000000000000000000000020000000000000000000800000000000000000000000010000000800000000000000000000000000000000000000000000000000000000000000000000000000000000100000000000000000000000000000000000000001000000000000002000000000000000000000000000000000000000000000000000060000000000000000000000000000000000000000000000000000000000000000000",
      "type": "0x2",
      "transactionHash": "0xbb7f8818c16f543547d2a2f02d2702f5cef555f4cdb53122c45a2634a82b6b99",
      "transactionIndex": "0x1",
      "blockHash": "0x04bd373cbdabfffde26ab244ba1879938b88831677fbe90c2f630cc7b155edbb",
      "blockNumber": "0x1ff75d2",
      "gasUsed": "0x16e80",
      "effectiveGasPrice": "0xfe",
      "blobGasUsed": "0x9c40",
      "from": "0x7571707a5df03406772508a1858da3f94ae27c12",
      "to": "0x6ba944d6298caf991db578186012e518e7a42f18",
      "contractAddress": null,
      "daFootprintGasScalar": "0x190",
      "l1BaseFeeScalar": "0x2af8",
      "l1BlobBaseFee": "0x2",
      "l1BlobBaseFeeScalar": "0x109618",
      "l1Fee": "0x364",
      "l1GasPrice": "0x25",
      "l1GasUsed": "0x640"
    }
  ],
  "libraries": [],
  "pending": [],
  "returns": {},
  "timestamp": 1772351108105,
  "chain": 4202,
  "commit": null
}