{
  "transactions": [
    {
      "hash": "0x76cf641240cc839e608b9e884b6c499fe81be82f77fcac8f95d30759e331c99c",
      "transactionType": "CALL",
      "contractName": null,
      "contractAddress": "0xb21696963d75cdf5c125e7a4234f5a415eaaf1f1",
      "function": "mint(address,string)",
      "arguments": [
        "0x7571707A5dF03406772508A1858DA3f94AE27C12",
        "https://ipfs.io/ipfs/bafkreiahk2hlswjfmjsec6nzacmh3yf4zb6cjskl2t7mf3osvf6ebyapay"
      ],
      "transaction": {
        "from": "0x7571707a5df03406772508a1858da3f94ae27c12",
        "to": "0xb21696963d75cdf5c125e7a4234f5a415eaaf1f1",
        "gas": "0x3e3c8",
        "value": "0x0",
        "input": "0xd0def5210000000000000000000000007571707a5df03406772508a1858da3f94ae27c120000000000000000000000000000000000000000000000000000000000000040000000000000000000000000000000000000000000000000000000000000005068747470733a2f2f697066732e696f2f697066732f6261666b72656961686b32686c73776a666d6a736563366e7a61636d68337966347a6236636a736b6c3274376d66336f737666366562796170617900000000000000000000000000000000",
        "nonce": "0x14",
        "chainId": "0x106a"
      },
      "additionalContracts": [],
      "isFixedGasLimit": false
    }
  ],
  "receipts": [
    {
      "status": "0x1",
      "cumulativeGasUsed": "0x3853d",
      "logs": [
        {
          "address": "0xb21696963d75cdf5c125e7a4234f5a415eaaf1f1",
          "topics": [
            "0xddf252ad1be2c89b69c2b068fc378daa952ba7f163c4a11628f55a4df523b3ef",
            "0x0000000000000000000000000000000000000000000000000000000000000000",
            "0x0000000000000000000000007571707a5df03406772508a1858da3f94ae27c12",
            "0x0000000000000000000000000000000000000000000000000000000000000001"
          ],
          "data": "0x",
          "blockHash": "0x1f0113753f58c124fa9121e740e87d613e58ccef78e9ef65d297c09df31c6c75",
          "blockNumber": "0x1ff7b78",
          "blockTimestamp": "0x69a3f9d0",
          "transactionHash": "0x76cf641240cc839e608b9e884b6c499fe81be82f77fcac8f95d30759e331c99c",
          "transactionIndex": "0x1",
          "logIndex": "0x0",
          "removed": false
        },
        {
          "address": "0xb21696963d75cdf5c125e7a4234f5a415eaaf1f1",
          "topics": [
            "0xf8e1a15aba9398e019f0b49df1a4fde98ee17ae345cb5f6b5e2c27f5033e8ce7"
          ],
          "data": "0x0000000000000000000000000000000000000000000000000000000000000001",
          "blockHash": "0x1f0113753f58c124fa9121e740e87d613e58ccef78e9ef65d297c09df31c6c75",
          "blockNumber": "0x1ff7b78",
          "blockTimestamp": "0x69a3f9d0",
          "transactionHash": "0x76cf641240cc839e608b9e884b6c499fe81be82f77fcac8f95d30759e331c99c",
          "transactionIndex": "0x1",
          "logIndex": "0x1",
          "removed": false
        }
      ],
      "logsBloom": "0x00000000000000000000000000000000000000000000000000000000000000000000000000000000000000000000000000000000000000000000000000040010000000000000000000000008000000000000000000040000004000000000000000000000020000000000000000000800000000000000000000000010000000000000000000000000000000000100000000000000000000000000000000000000000000000000000100000000000000002000000000000000000000001000008000000002000000000010000000000000000000000000000000000000000060000000000000000000200000000000000000000000000000000000000000000000",
      "type": "0x2",
      "transactionHash": "0x76cf641240cc839e608b9e884b6c499fe81be82f77fcac8f95d30759e331c99c",
      "transactionIndex": "0x1",
      "blockHash": "0x1f0113753f58c124fa9121e740e87d613e58ccef78e9ef65d297c09df31c6c75",
      "blockNumber": "0x1ff7b78",
      "gasUsed": "0x2d0ef",
      "effectiveGasPrice": "0xfe",
      "blobGasUsed": "0xf870",
      "from": "0x7571707a5df03406772508a1858da3f94ae27c12",
      "to": "0xb21696963d75cdf5c125e7a4234f5a415eaaf1f1",
      "contractAddress": null,
      "daFootprintGasScalar": "0x190",
      "l1BaseFeeScalar": "0x2af8",
      "l1BlobBaseFee": "0x2",
      "l1BlobBaseFeeScalar": "0x109618",
      "l1Fee": "0x518",
      "l1GasPrice": "0x22",
      "l1GasUsed": "0x9fd"
    }
  ],
  "libraries": [],
  "pending": [],
  "returns": {},
  "timestamp": 1772354000321,
  "chain": 4202,
  "commit": null
}