{
  "transactions": [
    {
      "hash": "0x081e3ff30973e5d16299928256599050e9b9035604f025cc8eb00742bbb75a66",
      "transactionType": "CALL",
      "contractName": null,
      "contractAddress": "0x3046ea431621d674273eee906b18a4dec0982d03",
      "function": "mint(address,string)",
      "arguments": [
        "0x7571707A5dF03406772508A1858DA3f94AE27C12",
        "https://indigo-electoral-basilisk-17.mypinata.cloud/ipfs/bafybeieuvnncrdkozsswafu6mcnunobgyli7unmgj2qssoszuqd4yqwkw4/"
      ],
      "transaction": {
        "from": "0x7571707a5df03406772508a1858da3f94ae27c12",
        "to": "0x3046ea431621d674273eee906b18a4dec0982d03",
        "gas": "0x4a075",
        "value": "0x0",
        "input": "0xd0def5210000000000000000000000007571707a5df03406772508a1858da3f94ae27c120000000000000000000000000000000000000000000000000000000000000040000000000000000000000000000000000000000000000000000000000000007568747470733a2f2f696e6469676f2d656c6563746f72616c2d626173696c69736b2d31372e6d7970696e6174612e636c6f75642f697066732f626166796265696575766e6e6372646b6f7a737377616675366d636e756e6f6267796c6937756e6d676a327173736f737a757164347971776b77342f0000000000000000000000",
        "nonce": "0x12",
        "chainId": "0x106a"
      },
      "additionalContracts": [],
      "isFixedGasLimit": false
    }
  ],
  "receipts": [
    {
      "status": "0x1",
      "cumulativeGasUsed": "0x3de31",
      "logs": [
        {
          "address": "0x3046ea431621d674273eee906b18a4dec0982d03",
          "topics": [
            "0xddf252ad1be2c89b69c2b068fc378daa952ba7f163c4a11628f55a4df523b3ef",
            "0x0000000000000000000000000000000000000000000000000000000000000000",
            "0x0000000000000000000000007571707a5df03406772508a1858da3f94ae27c12",
            "0x0000000000000000000000000000000000000000000000000000000000000001"
          ],
          "data": "0x",
          "blockHash": "0x9080a89d54971a9c118f8d105cee212b6cf9351a9453d33c2288034f25a196a2",
          "blockNumber": "0x1ff7a43",
          "blockTimestamp": "0x69a3f766",
          "transactionHash": "0x081e3ff30973e5d16299928256599050e9b9035604f025cc8eb00742bbb75a66",
          "transactionIndex": "0x1",
          "logIndex": "0x0",
          "removed": false
        },
        {
          "address": "0x3046ea431621d674273eee906b18a4dec0982d03",
          "topics": [
            "0xf8e1a15aba9398e019f0b49df1a4fde98ee17ae345cb5f6b5e2c27f5033e8ce7"
          ],
          "data": "0x0000000000000000000000000000000000000000000000000000000000000001",
          "blockHash": "0x9080a89d54971a9c118f8d105cee212b6cf9351a9453d33c2288034f25a196a2",
          "blockNumber": "0x1ff7a43",
          "blockTimestamp": "0x69a3f766",
          "transactionHash": "0x081e3ff30973e5d16299928256599050e9b9035604f025cc8eb00742bbb75a66",
          "transactionIndex": "0x1",
          "logIndex": "0x1",
          "removed": false
        }
      ],
      "logsBloom": "0x00000000000000000000000000000000000040000000000800000000000000000000000000000000000000000000000000000000000000000000000000040000000000000000000000000008000000000000000000040000004000000000000000000000020000000000000000000800080000000000000000000010000000000000000000000000000000000000000000000000000000000000000000000000000000000000000100000000000000002000000000000000000000001000008000000002000000000000000000000000000000000000000000000000000060000000000000000000200000000000000000000000000000000000000000000000",
      "type": "0x2",
      "transactionHash": "0x081e3ff30973e5d16299928256599050e9b9035604f025cc8eb00742bbb75a66",
      "transactionIndex": "0x1",
      "blockHash": "0x9080a89d54971a9c118f8d105cee212b6cf9351a9453d33c2288034f25a196a2",
      "blockNumber": "0x1ff7a43",
      "gasUsed": "0x329e3",
      "effectiveGasPrice": "0xfe",
      "blobGasUsed": "0x12c00",
      "from": "0x7571707a5df03406772508a1858da3f94ae27c12",
      "to": "0x3046ea431621d674273eee906b18a4dec0982d03",
      "contractAddress": null,
      "daFootprintGasScalar": "0x190",
      "l1BaseFeeScalar": "0x2af8",
      "l1BlobBaseFee": "0x2",
      "l1BlobBaseFeeScalar": "0x109618",
      "l1Fee": "0x687",
      "l1GasPrice": "0x25",
      "l1GasUsed": "0xc07"
    }
  ],
  "libraries": [],
  "pending": [],
  "returns": {},
  "timestamp": 1772353383470,
  "chain": 4202,
  "commit": null
}